{
  "_format": "hh-sol-artifact-1",
  "contractName": "PortfolioNFT",
  "sourceName": "contracts/PortfolioNFT.sol",
  "abi": [
    {
      "inputs": [],
      "stateMutability": "nonpayable",
      "type": "constructor"
    },
    {
      "inputs": [
        {
          "internalType": "address",
          "name": "sender",
          "type": "address"
        },
        {
          "internalType": "uint256",
          "name": "tokenId",
          "type": "uint256"
        },
        {
          "internalType": "address",
          "name": "owner",
          "type": "address"
        }
      ],
      "name": "ERC721IncorrectOwner",
      "type": "error"
    },
    {
      "inputs": [
        {
          "internalType": "address",
          "name": "operator",
          "type": "address"
        },
        {
          "internalType": "uint256",
          "name": "tokenId",
          "type": "uint256"
        }
      ],
      "name": "ERC721InsufficientApproval",
      "type": "error"
    },
    {
      "inputs": [
        {
          "internalType": "address",
          "name": "approver",
          "type": "address"
        }
      ],
      "name": "ERC721InvalidApprover",
      "type": "error"
    },
    {
      "inputs": [
        {
          "internalType": "address",
          "name": "operator",
          "type": "address"
        }
      ],
      "name": "ERC721InvalidOperator",
      "type": "error"
    },
    {
      "inputs": [
        {
          "internalType": "address",
          "name": "owner",
          "type": "address"
        }
      ],
      "name": "ERC721InvalidOwner",
      "type": "error"
    },
    {
      "inputs": [
        {
          "internalType": "address",
          "name": "receiver",
          "type": "address"
        }
      ],
      "name": "ERC721InvalidReceiver",
      "type": "error"
    },
    {
      "inputs": [
        {
          "internalType": "address",
          "name": "sender",
          "type": "address"
        }
      ],
      "name": "ERC721InvalidSender",
      "type": "error"
    },
    {
      "inputs": [
        {
          "internalType": "uint256",
          "name": "tokenId",
          "type": "uint256"
        }
      ],
      "name": "ERC721NonexistentToken",
      "type": "error"
    },
    {
      "inputs": [
        {
          "internalType": "address",
          "name": "owner",
          "type": "address"
        }
      ],
      "name": "OwnableInvalidOwner",
      "type": "error"
    },
    {
      "inputs": [
        {
          "internalType": "address",
          "name": "account",
          "type": "address"
        }
      ],
      "name": "OwnableUnauthorizedAccount",
      "type": "error"
    },
    {
      "anonymous": false,
      "inputs": [
        {
          "indexed": true,
          "internalType": "address",
          "name": "owner",
          "type": "address"
        },
        {
          "indexed": true,
          "internalType": "address",
          "name": "approved",
          "type": "address"
        },
        {
          "indexed": true,
          "internalType": "uint256",
          "name": "tokenId",
          "type": "uint256"
        }
      ],
      "name": "Approval",
      "type": "event"
    },
    {
      "anonymous": false,
      "inputs": [
        {
          "indexed": true,
          "internalType": "address",
          "name": "owner",
          "type": "address"
        },
        {
          "indexed": true,
          "internalType": "address",
          "name": "operator",
          "type": "address"
        },
        {
          "indexed": false,
          "internalType": "bool",
          "name": "approved",
          "type": "bool"
        }
      ],
      "name": "ApprovalForAll",
      "type": "event"
    },
    {
      "anonymous": false,
      "inputs": [
        {
          "indexed": false,
          "internalType": "uint256",
          "name": "_fromTokenId",
          "type": "uint256"
        },
        {
          "indexed": false,
          "internalType": "uint256",
          "name": "_toTokenId",
          "type": "uint256"
        }
      ],
      "name": "BatchMetadataUpdate",
      "type": "event"
    },
    {
      "anonymous": false,
      "inputs": [
        {
          "indexed": false,
          "internalType": "uint256",
          "name": "_tokenId",
          "type": "uint256"
        }
      ],
      "name": "MetadataUpdate",
      "type": "event"
    },
    {
      "anonymous": false,
      "inputs": [
        {
          "indexed": true,
          "internalType": "address",
          "name": "previousOwner",
          "type": "address"
        },
        {
          "indexed": true,
          "internalType": "address",
          "name": "newOwner",
          "type": "address"
        }
      ],
      "name": "OwnershipTransferred",
      "type": "event"
    },
    {
      "anonymous": false,
      "inputs": [
        {
          "indexed": true,
          "internalType": "address",
          "name": "from",
          "type": "address"
        },
        {
          "indexed": true,
          "internalType": "address",
          "name": "to",
          "type": "address"
        },
        {
          "indexed": true,
          "internalType": "uint256",
          "name": "tokenId",
          "type": "uint256"
        }
      ],
      "name": "Transfer",
      "type": "event"
    },
    {
      "inputs": [],
      "name": "MAX_SUPPLY",
      "outputs": [
        {
          "internalType": "uint256",
          "name": "",
          "type": "uint256"
        }
      ],
      "stateMutability": "view",
      "type": "function"
    },
    {
      "inputs": [
        {
          "internalType": "address",
          "name": "to",
          "type": "address"
        },
        {
          "internalType": "uint256",
          "name": "tokenId",
          "type": "uint256"
        }
      ],
      "name": "approve",
      "outputs": [],
      "stateMutability": "nonpayable",
      "type": "function"
    },
    {
      "inputs": [
        {
          "internalType": "address",
          "name": "owner",
          "type": "address"
        }
      ],
      "name": "balanceOf",
      "outputs": [
        {
          "internalType": "uint256",
          "name": "",
          "type": "uint256"
        }
      ],
      "stateMutability": "view",
      "type": "function"
    },
    {
      "inputs": [
        {
          "internalType": "uint256",
          "name": "tokenId",
          "type": "uint256"
        }
      ],
      "name": "getApproved",
      "outputs": [
        {
          "internalType": "address",
          "name": "",
          "type": "address"
        }
      ],
      "stateMutability": "view",
      "type": "function"
    },
    {
      "inputs": [
        {
          "internalType": "address",
          "name": "owner",
          "type": "address"
        },
        {
          "internalType": "address",
          "name": "operator",
          "type": "address"
        }
      ],
      "name": "isApprovedForAll",
      "outputs": [
        {
          "internalType": "bool",
          "name": "",
          "type": "bool"
        }
      ],
      "stateMutability": "view",
      "type": "function"
    },
    {
      "inputs": [
        {
          "internalType": "address",
          "name": "recipient",
          "type": "address"
        },
        {
          "internalType": "string",
          "name": "tokenURI",
          "type": "string"
        }
      ],
      "name": "mintNFT",
      "outputs": [
        {
          "internalType": "uint256",
          "name": "",
          "type": "uint256"
        }
      ],
      "stateMutability": "payable",
      "type": "function"
    },
    {
      "inputs": [],
      "name": "mintPrice",
      "outputs": [
        {
          "internalType": "uint256",
          "name": "",
          "type": "uint256"
        }
      ],
      "stateMutability": "view",
      "type": "function"
    },
    {
      "inputs": [],
      "name": "name",
      "outputs": [
        {
          "internalType": "string",
          "name": "",
          "type": "string"
        }
      ],
      "stateMutability": "view",
      "type": "function"
    },
    {
      "inputs": [],
      "name": "owner",
      "outputs": [
        {
          "internalType": "address",
          "name": "",
          "type": "address"
        }
      ],
      "stateMutability": "view",
      "type": "function"
    },
    {
      "inputs": [
        {
          "internalType": "uint256",
          "name": "tokenId",
          "type": "uint256"
        }
      ],
      "name": "ownerOf",
      "outputs": [
        {
          "internalType": "address",
          "name": "",
          "type": "address"
        }
      ],
      "stateMutability": "view",
      "type": "function"
    },
    {
      "inputs": [],
      "name": "renounceOwnership",
      "outputs": [],
      "stateMutability": "nonpayable",
      "type": "function"
    },
    {
      "inputs": [
        {
          "internalType": "address",
          "name": "from",
          "type": "address"
        },
        {
          "internalType": "address",
          "name": "to",
          "type": "address"
        },
        {
          "internalType": "uint256",
          "name": "tokenId",
          "type": "uint256"
        }
      ],
      "name": "safeTransferFrom",
      "outputs": [],
      "stateMutability": "nonpayable",
      "type": "function"
    },
    {
      "inputs": [
        {
          "internalType": "address",
          "name": "from",
          "type": "address"
        },
        {
          "internalType": "address",
          "name": "to",
          "type": "address"
        },
        {
          "internalType": "uint256",
          "name": "tokenId",
          "type": "uint256"
        },
        {
          "internalType": "bytes",
          "name": "data",
          "type": "bytes"
        }
      ],
      "name": "safeTransferFrom",
      "outputs": [],
      "stateMutability": "nonpayable",
      "type": "function"
    },
    {
      "inputs": [
        {
          "internalType": "address",
          "name": "operator",
          "type": "address"
        },
        {
          "internalType": "bool",
          "name": "approved",
          "type": "bool"
        }
      ],
      "name": "setApprovalForAll",
      "outputs": [],
      "stateMutability": "nonpayable",
      "type": "function"
    },
    {
      "inputs": [
        {
          "internalType": "string",
          "name": "baseURI",
          "type": "string"
        }
      ],
      "name": "setBaseURI",
      "outputs": [],
      "stateMutability": "nonpayable",
      "type": "function"
    },
    {
      "inputs": [
        {
          "internalType": "uint256",
          "name": "_mintPrice",
          "type": "uint256"
        }
      ],
      "name": "setMintPrice",
      "outputs": [],
      "stateMutability": "nonpayable",
      "type": "function"
    },
    {
      "inputs": [
        {
          "internalType": "bytes4",
          "name": "interfaceId",
          "type": "bytes4"
        }
      ],
      "name": "supportsInterface",
      "outputs": [
        {
          "internalType": "bool",
          "name": "",
          "type": "bool"
        }
      ],
      "stateMutability": "view",
      "type": "function"
    },
    {
      "inputs": [],
      "name": "symbol",
      "outputs": [
        {
          "internalType": "string",
          "name": "",
          "type": "string"
        }
      ],
      "stateMutability": "view",
      "type": "function"
    },
    {
      "inputs": [
        {
          "internalType": "uint256",
          "name": "tokenId",
          "type": "uint256"
        }
      ],
      "name": "tokenURI",
      "outputs": [
        {
          "internalType": "string",
          "name": "",
          "type": "string"
        }
      ],
      "stateMutability": "view",
      "type": "function"
    },
    {
      "inputs": [
        {
          "internalType": "address",
          "name": "from",
          "type": "address"
        },
        {
          "internalType": "address",
          "name": "to",
          "type": "address"
        },
        {
          "internalType": "uint256",
          "name": "tokenId",
          "type": "uint256"
        }
      ],
      "name": "transferFrom",
      "outputs": [],
      "stateMutability": "nonpayable",
      "type": "function"
    },
    {
      "inputs": [
        {
          "internalType": "address",
          "name": "newOwner",
          "type": "address"
        }
      ],
      "name": "transferOwnership",
      "outputs": [],
      "stateMutability": "nonpayable",
      "type": "function"
    },
    {
      "inputs": [],
      "name": "withdraw",
      "outputs": [],
      "stateMutability": "nonpayable",
      "type": "function"
    }
  ],
  "bytecode": "0x608060405266b1a2bc2ec500006009553480156200001c57600080fd5b50336040518060400160405280601881526020017f506f7274666f6c696f204e465420436f6c6c656374696f6e0000000000000000815250604051806040016040528060048152602001631413919560e21b815250816000908162000082919062000210565b50600162000091828262000210565b5050506001600160a01b038116620000c357604051631e4fbdf760e01b81526000600482015260240160405180910390fd5b620000ce8162000119565b5060408051808201909152601d81527f68747470733a2f2f6578616d706c652e636f6d2f6d657461646174612f0000006020820152600a9062000112908262000210565b50620002dc565b600780546001600160a01b038381166001600160a01b0319831681179093556040519116919082907f8be0079c531659141344cd1fd0a4f28419497f9722a3daafe3b4186f6b6457e090600090a35050565b634e487b7160e01b600052604160045260246000fd5b600181811c908216806200019657607f821691505b602082108103620001b757634e487b7160e01b600052602260045260246000fd5b50919050565b601f8211156200020b57600081815260208120601f850160051c81016020861015620001e65750805b601f850160051c820191505b818110156200020757828155600101620001f2565b5050505b505050565b81516001600160401b038111156200022c576200022c6200016b565b62000244816200023d845462000181565b84620001bd565b602080601f8311600181146200027c5760008415620002635750858301515b600019600386901b1c1916600185901b17855562000207565b600085815260208120601f198616915b82811015620002ad578886015182559484019460019091019084016200028c565b5085821015620002cc5787850151600019600388901b60f8161c191681555b5050505050600190811b01905550565b6116e780620002ec6000396000f3fe6080604052600436106101355760003560e01c806370a08231116100ab578063b88d4fde1161006f578063b88d4fde14610342578063c87b56dd14610362578063e985e9c514610382578063eacabe14146103a2578063f2fde38b146103b5578063f4a0a528146103d557600080fd5b806370a08231146102ba578063715018a6146102da5780638da5cb5b146102ef57806395d89b411461030d578063a22cb4651461032257600080fd5b806332cb6b0c116100fd57806332cb6b0c1461020b5780633ccfd60b1461022f57806342842e0e1461024457806355f804b3146102645780636352211e146102845780636817c76c146102a457600080fd5b806301ffc9a71461013a57806306fdde031461016f578063081812fc14610191578063095ea7b3146101c957806323b872dd146101eb575b600080fd5b34801561014657600080fd5b5061015a610155366004611171565b6103f5565b60405190151581526020015b60405180910390f35b34801561017b57600080fd5b50610184610420565b60405161016691906111de565b34801561019d57600080fd5b506101b16101ac3660046111f1565b6104b2565b6040516001600160a01b039091168152602001610166565b3480156101d557600080fd5b506101e96101e4366004611226565b6104db565b005b3480156101f757600080fd5b506101e9610206366004611250565b6104ea565b34801561021757600080fd5b506102216103e881565b604051908152602001610166565b34801561023b57600080fd5b506101e961057a565b34801561025057600080fd5b506101e961025f366004611250565b6105cd565b34801561027057600080fd5b506101e961027f366004611338565b6105ed565b34801561029057600080fd5b506101b161029f3660046111f1565b610601565b3480156102b057600080fd5b5061022160095481565b3480156102c657600080fd5b506102216102d536600461136d565b61060c565b3480156102e657600080fd5b506101e9610654565b3480156102fb57600080fd5b506007546001600160a01b03166101b1565b34801561031957600080fd5b50610184610668565b34801561032e57600080fd5b506101e961033d366004611388565b610677565b34801561034e57600080fd5b506101e961035d3660046113c4565b610682565b34801561036e57600080fd5b5061018461037d3660046111f1565b61069a565b34801561038e57600080fd5b5061015a61039d366004611440565b61079e565b6102216103b0366004611473565b6107cc565b3480156103c157600080fd5b506101e96103d036600461136d565b6108a3565b3480156103e157600080fd5b506101e96103f03660046111f1565b6108e1565b60006001600160e01b03198216632483248360e11b148061041a575061041a826108ee565b92915050565b60606000805461042f906114c1565b80601f016020809104026020016040519081016040528092919081815260200182805461045b906114c1565b80156104a85780601f1061047d576101008083540402835291602001916104a8565b820191906000526020600020905b81548152906001019060200180831161048b57829003601f168201915b5050505050905090565b60006104bd8261093e565b506000828152600460205260409020546001600160a01b031661041a565b6104e6828233610977565b5050565b6001600160a01b03821661051957604051633250574960e11b8152600060048201526024015b60405180910390fd5b6000610526838333610984565b9050836001600160a01b0316816001600160a01b031614610574576040516364283d7b60e01b81526001600160a01b0380861660048301526024820184905282166044820152606401610510565b50505050565b610582610a7d565b476105956007546001600160a01b031690565b6001600160a01b03166108fc829081150290604051600060405180830381858888f193505050501580156104e6573d6000803e3d6000fd5b6105e883838360405180602001604052806000815250610682565b505050565b6105f5610a7d565b600a6104e68282611541565b600061041a8261093e565b60006001600160a01b038216610638576040516322718ad960e21b815260006004820152602401610510565b506001600160a01b031660009081526003602052604090205490565b61065c610a7d565b6106666000610aaa565b565b60606001805461042f906114c1565b6104e6338383610afc565b61068d8484846104ea565b6105743385858585610b9b565b60606106a58261093e565b50600082815260066020526040812080546106bf906114c1565b80601f01602080910402602001604051908101604052809291908181526020018280546106eb906114c1565b80156107385780601f1061070d57610100808354040283529160200191610738565b820191906000526020600020905b81548152906001019060200180831161071b57829003601f168201915b505050505090506000610749610cc6565b9050805160000361075b575092915050565b81511561078d578082604051602001610775929190611601565b60405160208183030381529060405292505050919050565b61079684610cd5565b949350505050565b6001600160a01b03918216600090815260056020908152604080832093909416825291909152205460ff1690565b6008546000906103e881106108185760405162461bcd60e51b815260206004820152601260248201527113585e081cdd5c1c1b1e481c995858da195960721b6044820152606401610510565b6007546001600160a01b03163314610873576009543410156108735760405162461bcd60e51b8152602060048201526014602482015273125b9cdd59999a58da595b9d081c185e5b595b9d60621b6044820152606401610510565b6008805490600061088383611630565b91905055506108928482610d3c565b61089c8184610d56565b9392505050565b6108ab610a7d565b6001600160a01b0381166108d557604051631e4fbdf760e01b815260006004820152602401610510565b6108de81610aaa565b50565b6108e9610a7d565b600955565b60006001600160e01b031982166380ac58cd60e01b148061091f57506001600160e01b03198216635b5e139f60e01b145b8061041a57506301ffc9a760e01b6001600160e01b031983161461041a565b6000818152600260205260408120546001600160a01b03168061041a57604051637e27328960e01b815260048101849052602401610510565b6105e88383836001610da6565b6000828152600260205260408120546001600160a01b03908116908316156109b1576109b1818486610eac565b6001600160a01b038116156109ef576109ce600085600080610da6565b6001600160a01b038116600090815260036020526040902080546000190190555b6001600160a01b03851615610a1e576001600160a01b0385166000908152600360205260409020805460010190555b60008481526002602052604080822080546001600160a01b0319166001600160a01b0389811691821790925591518793918516917fddf252ad1be2c89b69c2b068fc378daa952ba7f163c4a11628f55a4df523b3ef91a4949350505050565b6007546001600160a01b031633146106665760405163118cdaa760e01b8152336004820152602401610510565b600780546001600160a01b038381166001600160a01b0319831681179093556040519116919082907f8be0079c531659141344cd1fd0a4f28419497f9722a3daafe3b4186f6b6457e090600090a35050565b6001600160a01b038216610b2e57604051630b61174360e31b81526001600160a01b0383166004820152602401610510565b6001600160a01b03838116600081815260056020908152604080832094871680845294825291829020805460ff191686151590811790915591519182527f17307eab39ab6107e8899845ad3d59bd9653f200f220920489ca2b5937696c31910160405180910390a3505050565b6001600160a01b0383163b15610cbf57604051630a85bd0160e11b81526001600160a01b0384169063150b7a0290610bdd908890889087908790600401611657565b6020604051808303816000875af1925050508015610c18575060408051601f3d908101601f19168201909252610c1591810190611694565b60015b610c81573d808015610c46576040519150601f19603f3d011682016040523d82523d6000602084013e610c4b565b606091505b508051600003610c7957604051633250574960e11b81526001600160a01b0385166004820152602401610510565b805181602001fd5b6001600160e01b03198116630a85bd0160e11b14610cbd57604051633250574960e11b81526001600160a01b0385166004820152602401610510565b505b5050505050565b6060600a805461042f906114c1565b6060610ce08261093e565b506000610ceb610cc6565b90506000815111610d0b576040518060200160405280600081525061089c565b80610d1584610f10565b604051602001610d26929190611601565b6040516020818303038152906040529392505050565b6104e6828260405180602001604052806000815250610fa3565b6000828152600660205260409020610d6e8282611541565b506040518281527ff8e1a15aba9398e019f0b49df1a4fde98ee17ae345cb5f6b5e2c27f5033e8ce79060200160405180910390a15050565b8080610dba57506001600160a01b03821615155b15610e7c576000610dca8461093e565b90506001600160a01b03831615801590610df65750826001600160a01b0316816001600160a01b031614155b8015610e095750610e07818461079e565b155b15610e325760405163a9fbf51f60e01b81526001600160a01b0384166004820152602401610510565b8115610e7a5783856001600160a01b0316826001600160a01b03167f8c5be1e5ebec7d5bd14f71427d1e84f3dd0314c0f7b2291e5b200ac8c7c3b92560405160405180910390a45b505b5050600090815260046020526040902080546001600160a01b0319166001600160a01b0392909216919091179055565b610eb7838383610fbb565b6105e8576001600160a01b038316610ee557604051637e27328960e01b815260048101829052602401610510565b60405163177e802f60e01b81526001600160a01b038316600482015260248101829052604401610510565b60606000610f1d8361101e565b600101905060008167ffffffffffffffff811115610f3d57610f3d61128c565b6040519080825280601f01601f191660200182016040528015610f67576020820181803683370190505b5090508181016020015b600019016f181899199a1a9b1b9c1cb0b131b232b360811b600a86061a8153600a8504945084610f7157509392505050565b610fad83836110f6565b6105e8336000858585610b9b565b60006001600160a01b038316158015906107965750826001600160a01b0316846001600160a01b03161480610ff55750610ff5848461079e565b806107965750506000908152600460205260409020546001600160a01b03908116911614919050565b60008072184f03e93ff9f4daa797ed6e38ed64bf6a1f0160401b831061105d5772184f03e93ff9f4daa797ed6e38ed64bf6a1f0160401b830492506040015b6d04ee2d6d415b85acef81000000008310611089576d04ee2d6d415b85acef8100000000830492506020015b662386f26fc1000083106110a757662386f26fc10000830492506010015b6305f5e10083106110bf576305f5e100830492506008015b61271083106110d357612710830492506004015b606483106110e5576064830492506002015b600a831061041a5760010192915050565b6001600160a01b03821661112057604051633250574960e11b815260006004820152602401610510565b600061112e83836000610984565b90506001600160a01b038116156105e8576040516339e3563760e11b815260006004820152602401610510565b6001600160e01b0319811681146108de57600080fd5b60006020828403121561118357600080fd5b813561089c8161115b565b60005b838110156111a9578181015183820152602001611191565b50506000910152565b600081518084526111ca81602086016020860161118e565b601f01601f19169290920160200192915050565b60208152600061089c60208301846111b2565b60006020828403121561120357600080fd5b5035919050565b80356001600160a01b038116811461122157600080fd5b919050565b6000806040838503121561123957600080fd5b6112428361120a565b946020939093013593505050565b60008060006060848603121561126557600080fd5b61126e8461120a565b925061127c6020850161120a565b9150604084013590509250925092565b634e487b7160e01b600052604160045260246000fd5b600067ffffffffffffffff808411156112bd576112bd61128c565b604051601f8501601f19908116603f011681019082821181831017156112e5576112e561128c565b816040528093508581528686860111156112fe57600080fd5b858560208301376000602087830101525050509392505050565b600082601f83011261132957600080fd5b61089c838335602085016112a2565b60006020828403121561134a57600080fd5b813567ffffffffffffffff81111561136157600080fd5b61079684828501611318565b60006020828403121561137f57600080fd5b61089c8261120a565b6000806040838503121561139b57600080fd5b6113a48361120a565b9150602083013580151581146113b957600080fd5b809150509250929050565b600080600080608085870312156113da57600080fd5b6113e38561120a565b93506113f16020860161120a565b925060408501359150606085013567ffffffffffffffff81111561141457600080fd5b8501601f8101871361142557600080fd5b611434878235602084016112a2565b91505092959194509250565b6000806040838503121561145357600080fd5b61145c8361120a565b915061146a6020840161120a565b90509250929050565b6000806040838503121561148657600080fd5b61148f8361120a565b9150602083013567ffffffffffffffff8111156114ab57600080fd5b6114b785828601611318565b9150509250929050565b600181811c908216806114d557607f821691505b6020821081036114f557634e487b7160e01b600052602260045260246000fd5b50919050565b601f8211156105e857600081815260208120601f850160051c810160208610156115225750805b601f850160051c820191505b81811015610cbd5782815560010161152e565b815167ffffffffffffffff81111561155b5761155b61128c565b61156f8161156984546114c1565b846114fb565b602080601f8311600181146115a4576000841561158c5750858301515b600019600386901b1c1916600185901b178555610cbd565b600085815260208120601f198616915b828110156115d3578886015182559484019460019091019084016115b4565b50858210156115f15787850151600019600388901b60f8161c191681555b5050505050600190811b01905550565b6000835161161381846020880161118e565b83519083019061162781836020880161118e565b01949350505050565b60006001820161165057634e487b7160e01b600052601160045260246000fd5b5060010190565b6001600160a01b038581168252841660208201526040810183905260806060820181905260009061168a908301846111b2565b9695505050505050565b6000602082840312156116a657600080fd5b815161089c8161115b56fea2646970667358221220246a718407b41a98a1c32a4e67c4088bedefd70ce6a763e198b180caa3dda80164736f6c63430008140033",
  "linkReferences": {},
  "deployedLinkReferences": {}
}