{
  "_format": "hh-sol-artifact-1",
  "contractName": "PortfolioToken",
  "sourceName": "contracts/PortfolioToken.sol",
  "abi": [
    {
      "inputs": [],
      "stateMutability": "nonpayable",
      "type": "constructor"
    },
    {
      "inputs": [
        {
          "internalType": "address",
          "name": "spender",
          "type": "address"
        },
        {
          "internalType": "uint256",
          "name": "allowance",
          "type": "uint256"
        },
        {
          "internalType": "uint256",
          "name": "needed",
          "type": "uint256"
        }
      ],
      "name": "ERC20InsufficientAllowance",
      "type": "error"
    },
    {
      "inputs": [
        {
          "internalType": "address",
          "name": "sender",
          "type": "address"
        },
        {
          "internalType": "uint256",
          "name": "balance",
          "type": "uint256"
        },
        {
          "internalType": "uint256",
          "name": "needed",
          "type": "uint256"
        }
      ],
      "name": "ERC20InsufficientBalance",
      "type": "error"
    },
    {
      "inputs": [
        {
          "internalType": "address",
          "name": "approver",
          "type": "address"
        }
      ],
      "name": "ERC20InvalidApprover",
      "type": "error"
    },
    {
      "inputs": [
        {
          "internalType": "address",
          "name": "receiver",
          "type": "address"
        }
      ],
      "name": "ERC20InvalidReceiver",
      "type": "error"
    },
    {
      "inputs": [
        {
          "internalType": "address",
          "name": "sender",
          "type": "address"
        }
      ],
      "name": "ERC20InvalidSender",
      "type": "error"
    },
    {
      "inputs": [
        {
          "internalType": "address",
          "name": "spender",
          "type": "address"
        }
      ],
      "name": "ERC20InvalidSpender",
      "type": "error"
    },
    {
      "inputs": [
        {
          "internalType": "address",
          "name": "owner",
          "type": "address"
        }
      ],
      "name": "OwnableInvalidOwner",
      "type": "error"
    },
    {
      "inputs": [
        {
          "internalType": "address",
          "name": "account",
          "type": "address"
        }
      ],
      "name": "OwnableUnauthorizedAccount",
      "type": "error"
    },
    {
      "anonymous": false,
      "inputs": [
        {
          "indexed": true,
          "internalType": "address",
          "name": "owner",
          "type": "address"
        },
        {
          "indexed": true,
          "internalType": "address",
          "name": "spender",
          "type": "address"
        },
        {
          "indexed": false,
          "internalType": "uint256",
          "name": "value",
          "type": "uint256"
        }
      ],
      "name": "Approval",
      "type": "event"
    },
    {
      "anonymous": false,
      "inputs": [
        {
          "indexed": true,
          "internalType": "address",
          "name": "previousOwner",
          "type": "address"
        },
        {
          "indexed": true,
          "internalType": "address",
          "name": "newOwner",
          "type": "address"
        }
      ],
      "name": "OwnershipTransferred",
      "type": "event"
    },
    {
      "anonymous": false,
      "inputs": [
        {
          "indexed": true,
          "internalType": "address",
          "name": "user",
          "type": "address"
        },
        {
          "indexed": false,
          "internalType": "uint256",
          "name": "amount",
          "type": "uint256"
        }
      ],
      "name": "Staked",
      "type": "event"
    },
    {
      "anonymous": false,
      "inputs": [
        {
          "indexed": true,
          "internalType": "address",
          "name": "from",
          "type": "address"
        },
        {
          "indexed": true,
          "internalType": "address",
          "name": "to",
          "type": "address"
        },
        {
          "indexed": false,
          "internalType": "uint256",
          "name": "value",
          "type": "uint256"
        }
      ],
      "name": "Transfer",
      "type": "event"
    },
    {
      "anonymous": false,
      "inputs": [
        {
          "indexed": true,
          "internalType": "address",
          "name": "user",
          "type": "address"
        },
        {
          "indexed": false,
          "internalType": "uint256",
          "name": "amount",
          "type": "uint256"
        },
        {
          "indexed": false,
          "internalType": "uint256",
          "name": "reward",
          "type": "uint256"
        }
      ],
      "name": "Unstaked",
      "type": "event"
    },
    {
      "inputs": [],
      "name": "INITIAL_SUPPLY",
      "outputs": [
        {
          "internalType": "uint256",
          "name": "",
          "type": "uint256"
        }
      ],
      "stateMutability": "view",
      "type": "function"
    },
    {
      "inputs": [
        {
          "internalType": "address",
          "name": "owner",
          "type": "address"
        },
        {
          "internalType": "address",
          "name": "spender",
          "type": "address"
        }
      ],
      "name": "allowance",
      "outputs": [
        {
          "internalType": "uint256",
          "name": "",
          "type": "uint256"
        }
      ],
      "stateMutability": "view",
      "type": "function"
    },
    {
      "inputs": [
        {
          "internalType": "address",
          "name": "spender",
          "type": "address"
        },
        {
          "internalType": "uint256",
          "name": "value",
          "type": "uint256"
        }
      ],
      "name": "approve",
      "outputs": [
        {
          "internalType": "bool",
          "name": "",
          "type": "bool"
        }
      ],
      "stateMutability": "nonpayable",
      "type": "function"
    },
    {
      "inputs": [
        {
          "internalType": "address",
          "name": "account",
          "type": "address"
        }
      ],
      "name": "balanceOf",
      "outputs": [
        {
          "internalType": "uint256",
          "name": "",
          "type": "uint256"
        }
      ],
      "stateMutability": "view",
      "type": "function"
    },
    {
      "inputs": [
        {
          "internalType": "uint256",
          "name": "amount",
          "type": "uint256"
        }
      ],
      "name": "burn",
      "outputs": [],
      "stateMutability": "nonpayable",
      "type": "function"
    },
    {
      "inputs": [],
      "name": "decimals",
      "outputs": [
        {
          "internalType": "uint8",
          "name": "",
          "type": "uint8"
        }
      ],
      "stateMutability": "view",
      "type": "function"
    },
    {
      "inputs": [
        {
          "internalType": "address",
          "name": "to",
          "type": "address"
        },
        {
          "internalType": "uint256",
          "name": "amount",
          "type": "uint256"
        }
      ],
      "name": "mint",
      "outputs": [],
      "stateMutability": "nonpayable",
      "type": "function"
    },
    {
      "inputs": [],
      "name": "name",
      "outputs": [
        {
          "internalType": "string",
          "name": "",
          "type": "string"
        }
      ],
      "stateMutability": "view",
      "type": "function"
    },
    {
      "inputs": [],
      "name": "owner",
      "outputs": [
        {
          "internalType": "address",
          "name": "",
          "type": "address"
        }
      ],
      "stateMutability": "view",
      "type": "function"
    },
    {
      "inputs": [],
      "name": "renounceOwnership",
      "outputs": [],
      "stateMutability": "nonpayable",
      "type": "function"
    },
    {
      "inputs": [
        {
          "internalType": "uint256",
          "name": "amount",
          "type": "uint256"
        }
      ],
      "name": "stake",
      "outputs": [],
      "stateMutability": "nonpayable",
      "type": "function"
    },
    {
      "inputs": [
        {
          "internalType": "address",
          "name": "",
          "type": "address"
        }
      ],
      "name": "stakedBalances",
      "outputs": [
        {
          "internalType": "uint256",
          "name": "",
          "type": "uint256"
        }
      ],
      "stateMutability": "view",
      "type": "function"
    },
    {
      "inputs": [
        {
          "internalType": "address",
          "name": "",
          "type": "address"
        }
      ],
      "name": "stakingTimestamp",
      "outputs": [
        {
          "internalType": "uint256",
          "name": "",
          "type": "uint256"
        }
      ],
      "stateMutability": "view",
      "type": "function"
    },
    {
      "inputs": [],
      "name": "symbol",
      "outputs": [
        {
          "internalType": "string",
          "name": "",
          "type": "string"
        }
      ],
      "stateMutability": "view",
      "type": "function"
    },
    {
      "inputs": [],
      "name": "totalSupply",
      "outputs": [
        {
          "internalType": "uint256",
          "name": "",
          "type": "uint256"
        }
      ],
      "stateMutability": "view",
      "type": "function"
    },
    {
      "inputs": [
        {
          "internalType": "address",
          "name": "to",
          "type": "address"
        },
        {
          "internalType": "uint256",
          "name": "value",
          "type": "uint256"
        }
      ],
      "name": "transfer",
      "outputs": [
        {
          "internalType": "bool",
          "name": "",
          "type": "bool"
        }
      ],
      "stateMutability": "nonpayable",
      "type": "function"
    },
    {
      "inputs": [
        {
          "internalType": "address",
          "name": "from",
          "type": "address"
        },
        {
          "internalType": "address",
          "name": "to",
          "type": "address"
        },
        {
          "internalType": "uint256",
          "name": "value",
          "type": "uint256"
        }
      ],
      "name": "transferFrom",
      "outputs": [
        {
          "internalType": "bool",
          "name": "",
          "type": "bool"
        }
      ],
      "stateMutability": "nonpayable",
      "type": "function"
    },
    {
      "inputs": [
        {
          "internalType": "address",
          "name": "newOwner",
          "type": "address"
        }
      ],
      "name": "transferOwnership",
      "outputs": [],
      "stateMutability": "nonpayable",
      "type": "function"
    },
    {
      "inputs": [],
      "name": "unstake",
      "outputs": [],
      "stateMutability": "nonpayable",
      "type": "function"
    }
  ],
  "bytecode": "0x60806040523480156200001157600080fd5b50336040518060400160405280600f81526020016e2837b93a3337b634b7902a37b5b2b760891b815250604051806040016040528060048152602001631413d49560e21b81525081600390816200006991906200033b565b5060046200007882826200033b565b5050506001600160a01b038116620000ab57604051631e4fbdf760e01b8152600060048201526024015b60405180910390fd5b620000b681620000d3565b50620000cd3369d3c21bcecceda100000062000125565b6200042f565b600580546001600160a01b038381166001600160a01b0319831681179093556040519116919082907f8be0079c531659141344cd1fd0a4f28419497f9722a3daafe3b4186f6b6457e090600090a35050565b6001600160a01b038216620001515760405163ec442f0560e01b815260006004820152602401620000a2565b6200015f6000838362000163565b5050565b6001600160a01b0383166200019257806002600082825462000186919062000407565b90915550620002069050565b6001600160a01b03831660009081526020819052604090205481811015620001e75760405163391434e360e21b81526001600160a01b03851660048201526024810182905260448101839052606401620000a2565b6001600160a01b03841660009081526020819052604090209082900390555b6001600160a01b038216620002245760028054829003905562000243565b6001600160a01b03821660009081526020819052604090208054820190555b816001600160a01b0316836001600160a01b03167fddf252ad1be2c89b69c2b068fc378daa952ba7f163c4a11628f55a4df523b3ef836040516200028991815260200190565b60405180910390a3505050565b634e487b7160e01b600052604160045260246000fd5b600181811c90821680620002c157607f821691505b602082108103620002e257634e487b7160e01b600052602260045260246000fd5b50919050565b601f8211156200033657600081815260208120601f850160051c81016020861015620003115750805b601f850160051c820191505b8181101562000332578281556001016200031d565b5050505b505050565b81516001600160401b0381111562000357576200035762000296565b6200036f81620003688454620002ac565b84620002e8565b602080601f831160018114620003a757600084156200038e5750858301515b600019600386901b1c1916600185901b17855562000332565b600085815260208120601f198616915b82811015620003d857888601518255948401946001909101908401620003b7565b5085821015620003f75787850151600019600388901b60f8161c191681555b5050505050600190811b01905550565b808201808211156200042957634e487b7160e01b600052601160045260246000fd5b92915050565b610c5e806200043f6000396000f3fe608060405234801561001057600080fd5b50600436106101215760003560e01c806342966c68116100ad57806395d89b411161007157806395d89b411461026c578063a694fc3a14610274578063a9059cbb14610287578063dd62ed3e1461029a578063f2fde38b146102d357600080fd5b806342966c68146101ed57806370a0823114610200578063715018a6146102295780638da5cb5b146102315780638f0794fe1461024c57600080fd5b806323b872dd116100f457806323b872dd1461019d5780632def6620146101b05780632ff2e9dc146101ba578063313ce567146101cb57806340c10f19146101da57600080fd5b806306fdde0314610126578063095ea7b3146101445780631460fa871461016757806318160ddd14610195575b600080fd5b61012e6102e6565b60405161013b9190610a3b565b60405180910390f35b610157610152366004610aa5565b610378565b604051901515815260200161013b565b610187610175366004610acf565b60066020526000908152604090205481565b60405190815260200161013b565b600254610187565b6101576101ab366004610af1565b610392565b6101b86103b6565b005b61018769d3c21bcecceda100000081565b6040516012815260200161013b565b6101b86101e8366004610aa5565b6104b6565b6101b86101fb366004610b2d565b6104cc565b61018761020e366004610acf565b6001600160a01b031660009081526020819052604090205490565b6101b86104d9565b6005546040516001600160a01b03909116815260200161013b565b61018761025a366004610acf565b60076020526000908152604090205481565b61012e6104ed565b6101b8610282366004610b2d565b6104fc565b610157610295366004610aa5565b610618565b6101876102a8366004610b46565b6001600160a01b03918216600090815260016020908152604080832093909416825291909152205490565b6101b86102e1366004610acf565b610626565b6060600380546102f590610b79565b80601f016020809104026020016040519081016040528092919081815260200182805461032190610b79565b801561036e5780601f106103435761010080835404028352916020019161036e565b820191906000526020600020905b81548152906001019060200180831161035157829003601f168201915b5050505050905090565b600033610386818585610661565b60019150505b92915050565b6000336103a0858285610673565b6103ab8585856106f2565b506001949350505050565b336000908152600660205260409020548061040b5760405162461bcd60e51b815260206004820152601060248201526f139bc81d1bdad95b9cc81cdd185ad95960821b60448201526064015b60405180910390fd5b336000908152600760205260408120546104259042610bc9565b9050600063bbf81e006104388385610bdc565b610443906005610bdc565b61044d9190610bf3565b3360008181526006602052604081205590915061046c903090856106f2565b6104763382610751565b604080518481526020810183905233917f7fc4727e062e336010f2c282598ef5f14facb3de68cf8195c2f23e1454b2b74e910160405180910390a2505050565b6104be610787565b6104c88282610751565b5050565b6104d633826107b4565b50565b6104e1610787565b6104eb60006107ea565b565b6060600480546102f590610b79565b600081116105445760405162461bcd60e51b815260206004820152601560248201527443616e6e6f74207374616b65203020746f6b656e7360581b6044820152606401610402565b3360009081526020819052604090205481111561059a5760405162461bcd60e51b8152602060048201526014602482015273496e73756666696369656e742062616c616e636560601b6044820152606401610402565b6105a53330836106f2565b33600090815260066020526040812080548392906105c4908490610c15565b90915550503360008181526007602052604090819020429055517f9e71bc8eea02a63969f509818f2dafb9254532904319f9dbda79b67bd34a5f3d9061060d9084815260200190565b60405180910390a250565b6000336103868185856106f2565b61062e610787565b6001600160a01b03811661065857604051631e4fbdf760e01b815260006004820152602401610402565b6104d6816107ea565b61066e838383600161083c565b505050565b6001600160a01b038381166000908152600160209081526040808320938616835292905220546000198110156106ec57818110156106dd57604051637dc7a0d960e11b81526001600160a01b03841660048201526024810182905260448101839052606401610402565b6106ec8484848403600061083c565b50505050565b6001600160a01b03831661071c57604051634b637e8f60e11b815260006004820152602401610402565b6001600160a01b0382166107465760405163ec442f0560e01b815260006004820152602401610402565b61066e838383610911565b6001600160a01b03821661077b5760405163ec442f0560e01b815260006004820152602401610402565b6104c860008383610911565b6005546001600160a01b031633146104eb5760405163118cdaa760e01b8152336004820152602401610402565b6001600160a01b0382166107de57604051634b637e8f60e11b815260006004820152602401610402565b6104c882600083610911565b600580546001600160a01b038381166001600160a01b0319831681179093556040519116919082907f8be0079c531659141344cd1fd0a4f28419497f9722a3daafe3b4186f6b6457e090600090a35050565b6001600160a01b0384166108665760405163e602df0560e01b815260006004820152602401610402565b6001600160a01b03831661089057604051634a1406b160e11b815260006004820152602401610402565b6001600160a01b03808516600090815260016020908152604080832093871683529290522082905580156106ec57826001600160a01b0316846001600160a01b03167f8c5be1e5ebec7d5bd14f71427d1e84f3dd0314c0f7b2291e5b200ac8c7c3b9258460405161090391815260200190565b60405180910390a350505050565b6001600160a01b03831661093c5780600260008282546109319190610c15565b909155506109ae9050565b6001600160a01b0383166000908152602081905260409020548181101561098f5760405163391434e360e21b81526001600160a01b03851660048201526024810182905260448101839052606401610402565b6001600160a01b03841660009081526020819052604090209082900390555b6001600160a01b0382166109ca576002805482900390556109e9565b6001600160a01b03821660009081526020819052604090208054820190555b816001600160a01b0316836001600160a01b03167fddf252ad1be2c89b69c2b068fc378daa952ba7f163c4a11628f55a4df523b3ef83604051610a2e91815260200190565b60405180910390a3505050565b600060208083528351808285015260005b81811015610a6857858101830151858201604001528201610a4c565b506000604082860101526040601f19601f8301168501019250505092915050565b80356001600160a01b0381168114610aa057600080fd5b919050565b60008060408385031215610ab857600080fd5b610ac183610a89565b946020939093013593505050565b600060208284031215610ae157600080fd5b610aea82610a89565b9392505050565b600080600060608486031215610b0657600080fd5b610b0f84610a89565b9250610b1d60208501610a89565b9150604084013590509250925092565b600060208284031215610b3f57600080fd5b5035919050565b60008060408385031215610b5957600080fd5b610b6283610a89565b9150610b7060208401610a89565b90509250929050565b600181811c90821680610b8d57607f821691505b602082108103610bad57634e487b7160e01b600052602260045260246000fd5b50919050565b634e487b7160e01b600052601160045260246000fd5b8181038181111561038c5761038c610bb3565b808202811582820484141761038c5761038c610bb3565b600082610c1057634e487b7160e01b600052601260045260246000fd5b500490565b8082018082111561038c5761038c610bb356fea26469706673582212204622c2633e92563f7e917e7a6cc34c60d1bdeda9b8f17eb0a2b527744d75618f64736f6c63430008140033",
  "linkReferences": {},
  "deployedLinkReferences": {}
}